:020000040800F2
:1000000000280020CD0F0008E90E0008EF0E0008C0
:10001000F50E0008FB0E0008010F000800000000AC
:10002000000000000000000000000000070F0008B2
:10003000130F0008000000001F0F00082B0F00081E
:1000400015100008151000081510000815100008FC
:1000500015100008151000081510000815100008EC
:1000600015100008151000081510000815100008DC
:1000700015100008151000081510000815100008CC
:1000800015100008151000081510000815100008BC
:1000900015100008151000081510000815100008AC
:1000A000151000081510000815100008151000089C
:1000B000390F000815100008000000001510000896
:1000C00015100008000000000000000015100008D6
:1000D00000000000151000081510000800000000C6
:1000E0001510000815100008151000080000000089
:1000F0000000000000000000000000000000000000
:0C01000000000000000000005FF808F1A3
:10010C0010B5054C237833B9044B13B10448AFF345
:10011C0000800123237010BD280000200000000087
:10012C006C26000808B5034B1BB103490348AFF319
:10013C00008008BD000000002C0000206C26000888
:10014C0080B500AF104B5A680F4B9B681A440E4B8E
:10015C001B689A4215D10C4B1B68002B11D00A4B13
:10016C001B681946002000F013FE074B5B6819460C
:10017C00012000F00DFE044B9B681946022000F094
:10018C0007FE00BF80BD00BF4C00002080B500AF53
:10019C00B04B1B78032B00F2558101A252F823F0CF
:1001AC00BD01000807020008D30200089B030008E9
:1001BC00002000F0CFF90346002B02D1A64B012200
:1001CC001A60002000F0C6F90346002B00F03C81B9
:1001DC00A14B1B68002B00F037819E4B01221A703B
:1001EC009E4B00221A609D4B1B681946012000F0A3
:1001FC00DBF9994B00221A6026E1002000F0AAF9E5
:10020C000346002B0FD1012000F0A4F90346002B6C
:10021C0009D1022000F09EF90346002B03D18E4B2E
:10022C0001221A6012E1002000F094F90346002B21
:10023C0014D0894B1B68002B00F00881854B0222DF
:10024C001A70864B00221A60844B1B6819460120D9
:10025C0000F0AAF9804B00221A60F7E0012000F0B0
:10026C0079F90346002B1AD07B4B1B68002B00F04E
:10027C00ED807A4B1B680133784A1360774B1B680F
:10028C00632B02DD754B00221A60744B1B681946F8
:10029C00012000F089F9704B00221A60D6E0022090
:1002AC0000F058F90346002B00F0D0806A4B1B6815
:1002BC00002B00F0CB80694B1B68694A1360664BBE
:1002CC0000221A60C2E0002000F044F90346002B23
:1002DC000FD1012000F03EF90346002B09D102207A
:1002EC0000F038F90346002B03D15B4B01221A6056
:1002FC00AEE0002000F02EF90346002B14D0564B34
:10030C001B68002B00F0A480524B03221A70534B35
:10031C0000221A60514B1B681946012000F044F969
:10032C004D4B00221A6093E0012000F013F90346B4
:10033C00002B1AD0484B1B68002B00F08980474BD0
:10034C001B680133454A1360444B1B68632B02DD69
:10035C00424B00221A60414B1B681946012000F0E9
:10036C0023F93D4B00221A6072E0022000F0F2F8F3
:10037C000346002B6CD0384B1B68002B68D0374BD6
:10038C001B68374A5360344B00221A6060E000202F
:10039C0000F0E0F80346002B0FD1012000F0DAF852
:1003AC000346002B09D1022000F0D4F80346002BA1
:1003BC0003D1294B01221A6054E0002000F0CAF846
:1003CC000346002B0CD0244B1B68002B4AD0FFF7A4
:1003DC00B7FE204B00221A701F4B00221A6041E01E
:1003EC00012000F0B7F80346002B19D01A4B1B68FC
:1003FC00002B37D0194B1B680133184A1360174B6D
:10040C001B68632B02DD154B00221A60134B1B6813
:10041C001946012000F0C8F80F4B00221A6021E0A9
:10042C00022000F097F80346002B1BD00A4B1B68E8
:10043C00002B17D0094B1B68094A9360064B00220E
:10044C001A600FE000BF0EE000BF0CE000BF0AE036
:10045C0000BF08E0440000205800002048000020A5
:10046C004C00002000BF00BF80BD00BF80B400AFB7
:10047C00024B1B781846BD4680BC704744000020D8
:10048C0080B582B000AF00237B6053E02D4A7B68BF
:10049C00134419782C4A7B6813440A461A707B68FB
:1004AC00022B23D07B68022B2DDC7B68002B03D026
:1004BC007B68012B0DD026E04FF40051234801F04E
:1004CC008FF8034619461F4A7B6813440A461A7074
:1004DC001AE04FF480411D4801F082F8034619469A
:1004EC00184A7B6813440A461A700DE04FF4004119
:1004FC00164801F075F803461946124A7B681344F6
:10050C000A461A7000E000BF0E4A7B6813441A7842
:10051C000D497B680B441B789A4208D1094A7B68C9
:10052C00134419780A4A7B6813440A461A707B688C
:10053C0001337B607B68022BA8DD00BF00BF08374E
:10054C00BD4680BD60000020640000200008014012
:10055C005C00002080B483B000AF78607B68022B15
:10056C0001DD002308E0074A7B6813441B78002B4D
:10057C000CBF01230023DBB218460C37BD4680BCF0
:10058C00704700BF5C00002080B500AF01223F2106
:10059C00034801F03CF8034B00221A7000BF80BDE9
:1005AC00000801406700002080B584B000AF78607F
:1005BC0039603B68804A82FB03129210DB17D31A16
:1005CC00FB603A687C4B83FB02139910D317C91A52
:1005DC000B469B000B445B00D31ABB607B68002B63
:1005EC0003D07B68012B6DD0E1E0744AFB681344A7
:1005FC001B78DB08DBB203F00103DBB21A460121E6
:10060C006F4801F004F86D4AFB6813441B789B0893
:10061C00DBB203F00103DBB21A460221684800F09A
:10062C00F6FF664AFB6813441B785B08DBB203F0E9
:10063C000103DBB21A460421614800F0E8FF5F4A6F
:10064C00FB6813441B7803F00103DBB21A46082144
:10065C005B4800F0DCFF594ABB6813441B78DB088D
:10066C00DBB203F00103DBB21A461021544800F050
:10067C00CEFF524ABB6813441B789B08DBB203F0D5
:10068C000103DBB21A4620214D4800F0C0FF4B4A53
:10069C00BB6813441B785B08DBB203F00103DBB2CD
:1006AC001A464021464800F0B2FF444ABB68134446
:1006BC001B7803F00103DBB21A468021404800F09E
:1006CC00A6FF74E03D4AFB6813441B78DB08DBB2E1
:1006DC0003F00103DBB21A464FF48071384800F086
:1006EC0096FF364AFB6813441B789B08DBB203F079
:1006FC000103DBB21A464FF40071314800F087FF5A
:10070C002E4AFB6813441B785B08DBB203F0010331
:10071C00DBB21A464FF48061294800F078FF274A73
:10072C00FB6813441B7803F00103DBB21A464FF449
:10073C000061234800F06BFF204ABB6813441B7810
:10074C00DB08DBB203F00103DBB21A464FF4805135
:10075C001B4800F05CFF194ABB6813441B789B08CC
:10076C00DBB203F00103DBB21A464FF4005114481C
:10077C0000F04DFF114ABB6813441B785B08DBB2D9
:10078C0003F00103DBB21A464FF480410C4800F031
:10079C003EFF0A4ABB6813441B7803F00103DBB22B
:1007AC001A464FF40041064800F031FF00BF00BF6D
:1007BC001037BD4680BD00BF67666666000000202E
:1007CC00000C014080B582B000AF786000F0EEFB09
:1007DC000346002B67D07B68022B43D07B68022B2F
:1007EC005DDC7B68002B03D07B68012B1DD056E0B1
:1007FC0001212F4800F023FF08212D4800F01FFF96
:10080C00012202212A4800F002FF0122042128487B
:10081C0000F0FDFE01221021254800F0F8FE012217
:10082C002021234800F0F3FE3AE00221204800F09A
:10083C0006FF10211E4800F002FF012201211C4876
:10084C0000F0E5FE01220421194800F0E0FE01222F
:10085C000821174800F0DBFE01222021144800F08B
:10086C00D6FE1DE00421124800F0E9FE20211048BC
:10087C0000F0E5FE012201210D4800F0C8FE012226
:10088C0002210B4800F0C3FE01220821084800F0A9
:10089C00BEFE01221021064800F0B9FE00E000BFA8
:1008AC00FA2000F053FB00BF0837BD4680BD00BFE7
:1008BC000008014080B500AF012201212C4800F056
:1008CC00A6FE012202212A4800F0A1FE01220421E9
:1008DC00274800F09CFE01220821254800F097FED5
:1008EC0001221021224800F092FE012220212048F2
:1008FC0000F08DFE1F4B1B78022B12D0022B16DC46
:10090C00002B02D0012B06D011E000220121184847
:10091C0000F07DFE0CE000220221154800F077FE6D
:10092C0006E000220421124800F071FE00E000BF36
:10093C00114B1B78022B12D0022B16DC002B02D091
:10094C00012B06D011E000220821094800F05FFEBF
:10095C000CE000221021064800F059FE06E00022AF
:10096C002021034800F053FE00E000BF00BF80BD13
:10097C0000080140740000207500002080B500AF15
:10098C000D4B1B78002B14D1002000F02BFA0346E2
:10099C000A4A1360022000F025FA0346084A136045
:1009AC00084B00221A70084B02221A70024B0122CB
:1009BC001A7000BF80BD00BF6700002070000020CF
:1009CC0078000020740000207500002080B500AF76
:1009DC0000F0ECFA0346002B77D0FFF76BFF3C4B93
:1009EC001B685A1E3A490A6019460020FFF7DCFDC5
:1009FC00374B1B68002B28DC364B1B78022B1AD08C
:100A0C00022B24DC002B02D0012B0AD01FE0314B2F
:100A1C0002221A70022000F0E5F903462C4A1360FA
:100A2C0016E02C4B00221A70002000F0DBF9034674
:100A3C00274A13600CE0274B01221A70012000F0AA
:100A4C00D1F90346224A136002E000BF00E000BF68
:100A5C00214B1B685A1E20490A6019460120FFF7DA
:100A6C00A3FD1D4B1B68002B28DC1C4B1B78022B99
:100A7C001AD0022B24DC002B02D0012B0AD01FE051
:100A8C00164B02221A70022000F0ACF90346124AEF
:100A9C00136016E0114B00221A70002000F0A2F92E
:100AAC0003460D4A13600CE00C4B01221A70012016
:100ABC0000F098F90346084A136002E000BF00E01A
:100ACC0000BF4FF47A7000F041FA00BF80BD00BF48
:100ADC0070000020740000207800002075000020B9
:100AEC0080B582B000AF78607B68032B31D801A24F
:100AFC0052F823F0110B0008230B00083F0B0008E1
:100B0C004F0B0008154B1B78002B01D1FFF736FF5C
:100B1C00FFF75CFF1EE0114B1B78012B01D1FFF797
:100B2C0033FD0020FFF74EFE02210020FFF73CFDB5
:100B3C0010E00120FFF746FE03210020FFF734FDF3
:100B4C0008E00220FFF73EFE04210020FFF72CFDF9
:100B5C0000E000BF00BF0837BD4680BD6700002025
:100B6C0080B500AF00F052FA00F012F800F098F8DF
:100B7C0000F04AF8054801F0B3F9FFF707FBFFF75F
:100B8C0075FC03461846FFF7ABFFF6E77C00002028
:100B9C0080B590B000AF07F1180328220021184649
:100BAC0001F056FD3B1D00221A605A609A60DA6013
:100BBC001A610223BB610123BB621023FB62002379
:100BCC007B6307F11803184600F052FD0346002B17
:100BDC0001D000F0D8F80F237B600023BB6000230A
:100BEC00FB6000233B6100237B613B1D0021184609
:100BFC0000F0BEFF0346002B01D000F0C4F800BF8C
:100C0C004037BD4680BD000080B586B000AF07F10F
:100C1C00080300221A605A609A60DA603B46002290
:100C2C001A605A601D4B4FF080421A601B4B41F604
:100C3C003F725A60194B00229A60184B0922DA60F5
:100C4C00164B00221A61154B00229A61134801F0D1
:100C5C00F7F80346002B01D000F095F84FF48053C1
:100C6C00BB6007F1080319460C4801F08DFA0346E6
:100C7C00002B01D000F087F800233B6000237B6041
:100C8C003B461946054801F055FC0346002B01D0A4
:100C9C0000F079F800BF1837BD4680BD7C000020FD
:100CAC0080B586B000AF07F1080300221A605A60C5
:100CBC009A60DA60284B9B69274A43F004039361DE
:100CCC00254B9B6903F004037B607B68224B9B697B
:100CDC00214A43F0080393611F4B9B6903F00803FF
:100CEC003B603B6800223F211C4800F090FC002236
:100CFC004FF6FF711A4800F08AFC3F23BB600123BA
:100D0C00FB6000233B6102237B6107F1080319465A
:100D1C00124800F0EBFA4FF6FF73BB600123FB6047
:100D2C0000233B6102237B6107F1080319460C4841
:100D3C0000F0DCFA4FF46043BB600023FB6000233F
:100D4C003B6107F108031946044800F0CFFA00BFD5
:100D5C001837BD4680BD00BF00100240000801409E
:100D6C00000C014080B582B000AF78607B681B68D6
:100D7C00B3F1804F03D1FFF783FB00F001F900BF03
:100D8C000837BD4680BD80B400AF72B600BFFEE729
:100D9C0080B483B000AF786039607B68022B11D0CF
:100DAC007B68022B12DC7B68002B03D07B68012B49
:100DBC0004D00BE0084A3B68136008E0074A3B6824
:100DCC00136004E0064A3B68136000E000BF00BFFC
:100DDC000C37BD4680BC70470C0000201000002072
:100DEC001400002080B483B000AF78607B68022BC5
:100DFC000FD07B68022B0FDC7B68002B03D07B6849
:100E0C00012B03D008E0074B1B6806E0064B1B6860
:100E1C0003E0064B1B6800E0002318460C37BD4668
:100E2C0080BC70470C000020100000201400002033
:100E3C0080B485B000AF154B9B69144A43F0010395
:100E4C009361124B9B6903F00103BB60BB680F4BB2
:100E5C00DB690E4A43F08053D3610C4BDB6903F022
:100E6C0080537B607B680A4B5B68FB60FB6823F0FC
:100E7C00E063FB60FB6843F08063FB60044AFB6843
:100E8C00536000BF1437BD4680BC70470010024051
:100E9C000000014080B584B000AF78607B681B68AF
:100EAC00B3F1804F13D10C4BDB690B4A43F00103B8
:100EBC00D361094BDB6903F00103FB60FB68002283
:100ECC0000211C2000F0DBF91C2000F0F4F900BF1D
:100EDC001037BD4680BD00BF0010024080B400AF8B
:100EEC00FEE780B400AFFEE780B400AFFEE780B44D
:100EFC0000AFFEE780B400AFFEE780B400AF00BFE8
:100F0C00BD4680BC704780B400AF00BFBD4680BCFE
:100F1C00704780B400AF00BFBD4680BC704780B541
:100F2C0000AF00F0B9F800BF80BD000080B500AF85
:100F3C00024801F021F800BF80BD00BF7C000020FA
:100F4C0080B400AF00BFBD4680BC704780B483B096
:100F5C0000AF7860074B1B687A6892FBF3F3064A84
:100F6C001360064B00221A7000BF0C37BD4680BCC4
:100F7C00704700BF1C000020680000206C0000209F
:100F8C0080B400AF074B1B68013B064A1360054B4E
:100F9C001B68002B02DC044B01221A7000BFBD46FB
:100FAC0080BC7047680000206C00002080B400AF4B
:100FBC00024B1B781846BD4680BC70476C00002065
:100FCC000C480D490D4A002302E0D458C450043398
:100FDC00C4188C42F9D30A4A0A4C002301E013606E
:100FEC000432A242FBD3FFF7ABFF01F00DFBFFF77E
:100FFC00B7FD70470000002028000020AC26000838
:10100C0028000020C8000020FEE7000080B500AFDB
:10101C00084B1B68074A43F010031360032000F0D1
:10102C0023F90F2000F008F8FFF702FF0023184601
:10103C0080BD00BF0020024080B582B000AF786058
:10104C00124B1A68124B1B7819464FF47A73B3FB88
:10105C00F1F3B2FBF3F3184600F03BF90346002B17
:10106C0001D001230EE07B680F2B0AD8002279688F
:10107C004FF0FF3000F003F9064A7B681360002341
:10108C0000E0012318460837BD4680BD180000203B
:10109C00240000202000002080B400AF054B1B78FA
:1010AC001A46054B1B681344034A136000BFBD4628
:1010BC0080BC704724000020C400002080B400AF26
:1010CC00024B1B681846BD4680BC7047C40000200C
:1010DC0080B485B000AF78607B6803F00703FB60D9
:1010EC000C4BDB68BB60BA684FF6FF031340BB6068
:1010FC00FB681A02BB68134343F0BF6343F400332D
:10110C00BB60044ABB68D36000BF1437BD4680BCCB
:10111C00704700BF00ED00E080B400AF044BDB680B
:10112C001B0A03F007031846BD4680BC704700BF7E
:10113C0000ED00E080B483B000AF0346FB7197F97B
:10114C000730002B0BDBFB7903F01F02064997F9E4
:10115C0007305B09012000FA02F241F8232000BF9E
:10116C000C37BD4680BC704700E100E080B483B012
:10117C0000AF03463960FB7197F90730002B0ADB8F
:10118C003B68DAB20C4997F907301201D2B20B4422
:10119C0083F800230AE03B68DAB20849FB7903F0D4
:1011AC000F03043B1201D2B20B441A7600BF0C376A
:1011BC00BD4680BC704700BF00E100E000ED00E0E0
:1011CC0080B489B000AFF860B9607A60FB6803F056
:1011DC000703FB61FB69C3F10703042B28BF04233E
:1011EC00BB61FB690433062B02D9FB69033B00E0AE
:1011FC0000237B614FF0FF32BB6902FA03F3DA4341
:10120C00BB681A407B699A404FF0FF317B6901FA49
:10121C0003F3D9437B680B40134318462437BD4670
:10122C0080BC704780B582B000AF78607B68013BB2
:10123C00B3F1807F01D301230FE00A4A7B68013BA5
:10124C0053600F214FF0FF30FFF790FF054B00224A
:10125C009A60044B07221A60002318460837BD46D3
:10126C0080BD00BF10E000E080B582B000AF7860B8
:10127C007868FFF72DFF00BF0837BD4680BD80B5ED
:10128C0086B000AF0346B9607A60FB7300237B61C4
:10129C00FFF742FF78617A68B9687869FFF790FFC9
:1012AC00024697F90F3011461846FFF75FFF00BF53
:1012BC001837BD4680BD80B582B000AF0346FB71C8
:1012CC0097F907301846FFF735FF00BF0837BD46C2
:1012DC0080BD80B582B000AF78607868FFF7A2FF60
:1012EC00034618460837BD4680BD000080B48BB05D
:1012FC0000AF7860396000237B6200233B6248E1D9
:10130C0001227B6A02FA03F3FB613B681B68FA69F2
:10131C001340BB61BA69FB699A4240F037813B6864
:10132C005B68A34A93425ED0A14A934275D8A14A06
:10133C00934258D09F4A93426FD89F4A934252D0BF
:10134C009D4A934269D89D4A93424CD09B4A934202
:10135C0063D89B4A934246D0994A93425DD8122B4C
:10136C002AD8122B59D801A252F823F0F3130008F3
:10137C00CD130008DF1300082114000827140008FF
:10138C002714000827140008271400082714000845
:10139C002714000827140008271400082714000835
:1013AC002714000827140008271400082714000825
:1013BC00D5130008E9130008824A934213D02CE09D
:1013CC003B68DB683B6229E03B68DB6804333B62CB
:1013DC0024E03B68DB6808333B621FE03B68DB685A
:1013EC000C333B621AE03B689B68002B02D1042350
:1013FC003B6213E03B689B68012B05D108233B62E1
:10140C007B68FA691A6109E008233B627B68FA6918
:10141C005A6103E000233B6200E000BFBB69FF2B75
:10142C0001D87B6801E07B6804337B61BB69FF2BCF
:10143C0002D87B6A9B0002E07B6A083B9B003B6105
:10144C007B691A680F213B6901FA03F3DB431A40ED
:10145C00396A3B6901FA03F31A437B691A603B68EA
:10146C005B6803F08053002B00F09080564B9B6917
:10147C00554A43F001039361534B9B6903F00103FD
:10148C00BB60BB68514A7B6A9B08023352F823301D
:10149C00FB607B6A03F003039B000F2202FA03F349
:1014AC00DB43FA681340FB607B68494A93420DD0DA
:1014BC007B68484A934207D07B68474A934201D1E4
:1014CC00022304E0032302E0012300E000237A6AF4
:1014DC0002F0030292009340FA681343FB603B490D
:1014EC007B6A9B080233FA6841F823203B685B68EF
:1014FC0003F48033002B06D0384B1A683749BB698C
:10150C0013430B6006E0354B1A68BB69DB43334968
:10151C0013400B603B685B6803F40033002B06D070
:10152C002E4B5A682D49BB6913434B6006E02B4B7D
:10153C005A68BB69DB43294913404B603B685B68C5
:10154C0003F48013002B06D0244B9A682349BB6903
:10155C0013438B6006E0214B9A68BB69DB431F4940
:10156C0013408B603B685B6803F40013002B06D0C0
:10157C001A4BDA681949BB691343CB6006E0174B69
:10158C00DA68BB69DB4315491340CB607B6A0133D6
:10159C007B623B681A687B6A22FA03F3002B7FF4A8
:1015AC00AFAE00BF00BF2C37BD4680BC704700BF3C
:1015BC000000321000003110000022100000211039
:1015CC000000121000001110001002400000014039
:1015DC0000080140000C01400010014000040140D3
:1015EC0080B485B000AF78600B467B807B689A68CE
:1015FC007B881340002B02D00123FB7301E00023F6
:10160C00FB73FB7B18461437BD4680BC704780B417
:10161C0083B000AF78600B467B8013467B707B7881
:10162C00002B03D07A887B681A6103E07B881A044C
:10163C007B681A6100BF0C37BD4680BC704780B414
:10164C0085B000AF78600B467B807B68DB68FB6005
:10165C007A88FB6813401A04FB68D9437B880B40DB
:10166C001A437B681A6100BF1437BD4680BC7047B3
:10167C0080B586B000AF78607B68002B01D1012368
:10168C006CE27B681B6803F00103002B00F0878081
:10169C00924B5B6803F00C03042B0CD08F4B5B68F4
:1016AC0003F00C03082B12D18C4B5B6803F48033D2
:1016BC00B3F5803F0BD1894B1B6803F40033002B2F
:1016CC006CD07B685B68002B68D1012346E27B6899
:1016DC005B68B3F5803F06D1804B1B687F4A43F4AF
:1016EC00803313602EE07B685B68002B0CD17B4B46
:1016FC001B687A4A23F480331360784B1B68774A53
:10170C0023F4802313601DE07B685B68B3F5A02F86
:10171C000CD1724B1B68714A43F4802313606F4BDE
:10172C001B686E4A43F4803313600BE06B4B1B68F1
:10173C006A4A23F480331360684B1B68674A23F4AE
:10174C00802313607B685B68002B13D0FFF7B6FC1B
:10175C00386108E0FFF7B2FC02463B69D31A642BF0
:10176C0001D90323FAE15D4B1B6803F40033002B12
:10177C00F0D014E0FFF7A2FC386108E0FFF79EFC04
:10178C0002463B69D31A642B01D90323E6E1534B80
:10179C001B6803F40033002BF0D100E000BF7B6822
:1017AC001B6803F00203002B63D04C4B5B6803F007
:1017BC000C03002B0BD0494B5B6803F00C03082B7C
:1017CC001CD1464B5B6803F48033002B16D1434B82
:1017DC001B6803F00203002B05D07B681B69012BEF
:1017EC0001D00123BAE13D4B1B6823F0F8027B6862
:1017FC005B69DB00394913430B603AE07B681B697A
:10180C00002B20D0364B01221A60FFF757FC3861B1
:10181C0008E0FFF753FC02463B69D31A022B01D9AF
:10182C0003239BE12D4B1B6803F00203002BF0D02C
:10183C002A4B1B6823F0F8027B685B69DB002749A5
:10184C0013430B6015E0264B00221A60FFF736FCA1
:10185C00386108E0FFF732FC02463B69D31A022BD1
:10186C0001D903237AE11D4B1B6803F00203002B03
:10187C00F0D17B681B6803F00803002B3AD07B681F
:10188C009B69002B19D0174B01221A60FFF716FC2D
:10189C00386108E0FFF712FC02463B69D31A022BB1
:1018AC0001D903235AE10D4B5B6A03F00203002BB1
:1018BC00F0D0012000F0A6FA1CE00A4B00221A60BE
:1018CC00FFF7FCFB38610FE0FFF7F8FB02463B69C2
:1018DC00D31A022B08D9032340E100BF00100240A9
:1018EC0000004242800442429E4B5B6A03F00203BA
:1018FC00002BE9D17B681B6803F00403002B00F07C
:10190C00A6800023FB75974BDB6903F08053002BFB
:10191C000DD1944BDB69934A43F08053D361914BC7
:10192C00DB6903F08053BB60BB680123FB758E4BF6
:10193C001B6803F48073002B18D18B4B1B688A4AED
:10194C0043F480731360FFF7B9FB386108E0FFF7CD
:10195C00B5FB02463B69D31A642B01D90323FDE086
:10196C00814B1B6803F48073002BF0D07B68DB6821
:10197C00012B06D17B4B1B6A7A4A43F0010313629D
:10198C002DE07B68DB68002B0CD1764B1B6A754A0B
:10199C0023F001031362734B1B6A724A23F0040396
:1019AC0013621CE07B68DB68052B0CD16D4B1B6A4A
:1019BC006C4A43F0040313626A4B1B6A694A43F096
:1019CC00010313620BE0674B1B6A664A23F00103A9
:1019DC001362644B1B6A634A23F0040313627B6833
:1019EC00DB68002B15D0FFF769FB38610AE0FFF7C5
:1019FC0065FB02463B69D31A41F28832934201D906
:101A0C000323ABE0574B1B6A03F00203002BEED011
:101A1C0014E0FFF753FB38610AE0FFF74FFB024677
:101A2C003B69D31A41F28832934201D9032395E0E2
:101A3C004C4B1B6A03F00203002BEED1FB7D012BF8
:101A4C0005D1484BDB69474A23F08053D3617B684F
:101A5C00DB69002B00F08180424B5B6803F00C03C8
:101A6C00082B61D07B68DB69022B46D13F4B0022EF
:101A7C001A60FFF723FB386108E0FFF71FFB0246F3
:101A8C003B69D31A022B01D9032367E0354B1B6842
:101A9C0003F00073002BF0D17B681B6AB3F5803F19
:101AAC0008D1304B5B6823F400327B689B682D496E
:101ABC0013434B602B4B5B6823F474127B68196ADD
:101ACC007B685B6A0B43274913434B60274B01220E
:101ADC001A60FFF7F3FA386108E0FFF7EFFA0246F5
:101AEC003B69D31A022B01D9032337E01D4B1B682A
:101AFC0003F00073002BF0D02FE01C4B00221A6077
:101B0C00FFF7DCFA386108E0FFF7D8FA02463B69C8
:101B1C00D31A022B01D9032320E0124B1B6803F0CC
:101B2C000073002BF0D118E07B68DB69012B01D12D
:101B3C00012313E00B4B5B68FB60FB6803F4803202
:101B4C007B681B6A9A4206D1FB6803F470127B68AF
:101B5C005B6A9A4201D0012300E000231846183733
:101B6C00BD4680BD00100240007000406000424243
:101B7C0080B584B000AF786039607B68002B01D1F0
:101B8C000123D0E06A4B1B6803F007033A689A42C2
:101B9C0010D9674B1B6823F0070265493B68134358
:101BAC000B60634B1B6803F007033A689A4201D041
:101BBC000123B8E07B681B6803F00203002B20D0E4
:101BCC007B681B6803F00403002B05D0594B5B6842
:101BDC00584A43F4E06353607B681B6803F00803C6
:101BEC00002B05D0534B5B68524A43F4605353604F
:101BFC00504B5B6823F0F0027B689B684D491343A4
:101C0C004B607B681B6803F00103002B40D07B68A2
:101C1C005B68012B07D1474B1B6803F40033002B87
:101C2C0015D101237FE07B685B68022B07D1414B08
:101C3C001B6803F00073002B09D1012373E03D4BAB
:101C4C001B6803F00203002B01D101236BE0394B1D
:101C5C005B6823F003027B685B68364913434B6077
:101C6C00FFF72CFAF8600AE0FFF728FA0246FB6847
:101C7C00D31A41F28832934201D9032353E02D4BFE
:101C8C005B6803F00C027B685B689B009A42EBD1AB
:101C9C00274B1B6803F007033A689A4210D2244B77
:101CAC001B6823F0070222493B6813430B60204B4F
:101CBC001B6803F007033A689A4201D0012332E013
:101CCC007B681B6803F00403002B08D0194B5B687E
:101CDC0023F4E0627B68DB68164913434B607B6836
:101CEC001B6803F00803002B09D0124B5B6823F42C
:101CFC0060527B681B69DB000E4913434B6000F09C
:101D0C0021F802460B4B5B681B0903F00F030A49D1
:101D1C00CB5C22FA03F3094A1360094B1B68184683
:101D2C00FFF78AF9002318461037BD4680BD00BF67
:101D3C0000200240001002409426000818000020E9
:101D4C002000002090B48AB000AF2A4B3C1D0FCB72
:101D5C0084E80F0040F201233B800023FB61002349
:101D6C00BB6100237B6200237B6100233B62224B1F
:101D7C005B68FB61FB6903F00C03042B02D0082B9E
:101D8C0003D02DE01D4B3B622DE0FB699B0C03F057
:101D9C000F0307F12802134413F8243C7B61FB6901
:101DAC0003F48033002B13D0134B5B685B0C03F0F4
:101DBC00010307F12802134413F8283CBB617B692B
:101DCC000E4A02FB03F2BB69B2FBF3F37B6204E045
:101DDC007B690B4A02FB03F37B627B6A3B6202E08A
:101DEC00064B3B6200BF3B6A18462837BD4690BC89
:101DFC00704700BF842600080010024000127A00D1
:101E0C0000093D0080B485B000AF78600A4B1B68B8
:101E1C000A4AA2FB03235B0A7A6802FB03F3FB600A
:101E2C0000BFFB685A1EFA60002BF9D100BF00BF3F
:101E3C001437BD4680BC704718000020D34D62108B
:101E4C0080B582B000AF78607B68002B01D1012394
:101E5C0041E07B6893F83D30DBB2002B06D17B6808
:101E6C00002283F83C207868FFF714F87B68022284
:101E7C0083F83D207B681A687B680433194610464A
:101E8C0000F06AFA7B68012283F846207B68012205
:101E9C0083F83E207B68012283F83F207B68012277
:101EAC0083F840207B68012283F841207B68012263
:101EBC0083F842207B68012283F843207B6801224F
:101ECC0083F844207B68012283F845207B6801223B
:101EDC0083F83D20002318460837BD4680BD00001E
:101EEC0080B485B000AF78607B6893F83D30DBB28E
:101EFC00012B01D0012335E07B68022283F83D20C1
:101F0C007B681B68DA687B681B6842F00102DA6048
:101F1C007B681B68164A934209D07B681B68B3F137
:101F2C00804F04D07B681B68124A934211D17B68A6
:101F3C001B689B6803F00703FB60FB68062B10D043
:101F4C007B681B681A687B681B6842F001021A6088
:101F5C0007E07B681B681A687B681B6842F001020B
:101F6C001A60002318461437BD4680BC704700BF6A
:101F7C00002C01400004004080B582B000AF7860B6
:101F8C007B681B681B6903F00203022B22D17B6860
:101F9C001B68DB6803F00203022B1BD17B681B68F8
:101FAC006FF002021A617B6801221A777B681B684A
:101FBC009B6903F00303002B03D0786800F0B1F9A0
:101FCC0005E0786800F0A4F9786800F0B3F97B6854
:101FDC0000221A777B681B681B6903F00403042B2F
:101FEC0022D17B681B68DB6803F00403042B1BD134
:101FFC007B681B686FF004021A617B6802221A77F7
:10200C007B681B689B6903F44073002B03D07868D2
:10201C0000F087F905E0786800F07AF9786800F04C
:10202C0089F97B6800221A777B681B681B6903F0AF
:10203C000803082B22D17B681B68DB6803F00803BC
:10204C00082B1BD17B681B686FF008021A617B6838
:10205C0004221A777B681B68DB6903F00303002BEF
:10206C0003D0786800F05DF905E0786800F050F96D
:10207C00786800F05FF97B6800221A777B681B6830
:10208C001B6903F01003102B22D17B681B68DB68E3
:10209C0003F01003102B1BD17B681B686FF0100230
:1020AC001A617B6808221A777B681B68DB6903F46A
:1020BC004073002B03D0786800F033F905E07868A2
:1020CC0000F026F9786800F035F97B6800221A7761
:1020DC007B681B681B6903F00103012B0ED17B6825
:1020EC001B68DB6803F00103012B07D17B681B68BD
:1020FC006FF001021A617868FEF734FE7B681B688A
:10210C001B6903F08003802B0ED17B681B68DB6896
:10211C0003F08003802B07D17B681B686FF0800273
:10212C001A61786800F067FA7B681B681B6903F01A
:10213C004003402B0ED17B681B68DB6803F0400327
:10214C00402B07D17B681B686FF040021A617868DE
:10215C0000F0F9F87B681B681B6903F02003202B47
:10216C000ED17B681B68DB6803F02003202B07D1A2
:10217C007B681B686FF020021A61786800F032FAF5
:10218C0000BF0837BD4680BD80B584B000AF786015
:10219C0039607B6893F83C30012B01D10223B3E00A
:1021AC007B68012283F83C207B68022283F83D2067
:1021BC007B681B689B68FB60FB6823F07703FB6004
:1021CC00FB6823F47F43FB607B681B68FA689A60AA
:1021DC003B681B68B3F5005F3ED0B3F5005F00F2BF
:1021EC008780B3F5805F00F08580B3F5805F7FD882
:1021FC00702B1AD0702B7BD8602B50D0602B77D8DB
:10220C00502B3CD0502B73D8402B58D0402B6FD830
:10221C00302B64D0302B6BD8202B60D0202B67D880
:10222C00002B5CD0102B5AD062E07B6818683B689E
:10223C0099683B685A683B68DB6800F05CF97B681E
:10224C001B689B68FB60FB6843F07703FB607B6853
:10225C001B68FA689A604EE07B6818683B6899685E
:10226C003B685A683B68DB6800F045F97B681B6883
:10227C009A687B681B6842F480429A603BE07B68FA
:10228C0018683B6859683B68DB681A4600F0BCF874
:10229C007B681B685021184600F013F92BE07B6813
:1022AC0018683B6859683B68DB681A4600F0DAF836
:1022BC007B681B686021184600F003F91BE07B6803
:1022CC0018683B6859683B68DB681A4600F09CF854
:1022DC007B681B684021184600F0F3F80BE07B6824
:1022EC001A683B681B681946104600F0EAF802E0D1
:1022FC0000BF00E000BF7B68012283F83D207B68B3
:10230C00002283F83C20002318461037BD4680BDC0
:10231C0080B483B000AF786000BF0C37BD4680BC82
:10232C00704780B483B000AF786000BF0C37BD46F7
:10233C0080BC704780B483B000AF786000BF0C37AE
:10234C00BD4680BC704780B483B000AF786000BFDE
:10235C000C37BD4680BC704780B485B000AF786048
:10236C0039607B681B68FB607B68254A934207D009
:10237C007B68B3F1804F03D07B68224A934208D12B
:10238C00FB6823F07003FB603B685B68FA681343DF
:10239C00FB607B681A4A934207D07B68B3F1804F8D
:1023AC0003D07B68174A934208D1FB6823F440732F
:1023BC00FB603B68DB68FA681343FB60FB6823F047
:1023CC0080023B685B691343FB607B68FA681A60A8
:1023DC003B689A687B68DA623B681A687B689A6229
:1023EC007B68074A934203D13B681A697B681A637E
:1023FC007B6801225A6100BF1437BD4680BC704710
:10240C00002C01400004004080B487B000AFF8609D
:10241C00B9607A60FB681B6A7B61FB681B6A23F0FE
:10242C000102FB681A62FB689B693B613B6923F004
:10243C00F0033B617B681B013A6913433B617B6989
:10244C0023F00A037B617A69BB6813437B61FB68E9
:10245C003A699A61FB687A691A6200BF1C37BD46FB
:10246C0080BC704780B487B000AFF860B9607A6008
:10247C00FB681B6A23F01002FB681A62FB689B69FD
:10248C007B61FB681B6A3B617B6923F470437B6156
:10249C007B681B037A6913437B613B6923F0A003C0
:1024AC003B61BB681B013A6913433B61FB687A696A
:1024BC009A61FB683A691A6200BF1C37BD4680BC42
:1024CC00704780B485B000AF786039607B689B68DA
:1024DC00FB60FB6823F07003FB603A68FB681343F6
:1024EC0043F00703FB607B68FA689A6000BF1437FF
:1024FC00BD4680BC704780B487B000AFF860B9604F
:10250C007A603B60FB689B687B617B6923F47F434B
:10251C007B613B681A027B681A43BB6813437A6978
:10252C0013437B61FB687A699A6000BF1C37BD4618
:10253C0080BC704780B485B000AF786039607B6830
:10254C0093F83C30012B01D1022341E07B6801223E
:10255C0083F83C207B68022283F83D207B681B6853
:10256C005B68FB607B681B689B68BB60FB6823F047
:10257C007003FB603B681B68FA681343FB607B6865
:10258C001B68FA685A607B681B68144A934209D02E
:10259C007B681B68B3F1804F04D07B681B68104AC2
:1025AC0093420CD1BB6823F08003BB603B685B6833
:1025BC00BA681343BB607B681B68BA689A607B6817
:1025CC00012283F83D207B68002283F83C20002305
:1025DC0018461437BD4680BC704700BF002C014024
:1025EC000004004080B483B000AF786000BF0C37AB
:1025FC00BD4680BC704780B483B000AF786000BF2C
:10260C000C37BD4680BC704770B500260C4D0D4C88
:10261C00641BA410A64209D100F022F800260A4D32
:10262C000A4C641BA410A64205D170BD55F8043B9E
:10263C0098470136EEE755F8043B98470136F2E728
:10264C00A4260008A4260008A4260008A826000832
:10265C0003460244934200D1704703F8011BF9E78B
:10266C00F8B500BFF8BC08BC9E467047F8B500BF73
:08267C00F8BC08BC9E46704743
:1026840002030405060708090A0B0C0D0E0F1010AF
:10269400000000000000000001020304060708090E
:0426A40031010008F8
:0426A8000D01000818
:1026AC0000010203040506070809000005000000EC
:1026BC0002000000030000000024F4000A000000E7
:0826CC001000000001000000F5
:0400000508000FCD13
:00000001FF
